{
  "contractName": "HelloWorld",
  "abi": [
    {
      "inputs": [],
      "name": "sayHello",
      "outputs": [
        {
          "internalType": "string",
          "name": "",
          "type": "string"
        }
      ],
      "stateMutability": "nonpayable",
      "type": "function"
    },
    {
      "inputs": [
        {
          "internalType": "string",
          "name": "name",
          "type": "string"
        }
      ],
      "name": "echo",
      "outputs": [
        {
          "internalType": "string",
          "name": "",
          "type": "string"
        }
      ],
      "stateMutability": "view",
      "type": "function",
      "constant": true
    }
  ],
  "bytecode": "0x608060405234801561001057600080fd5b5061032f806100206000396000f3fe608060405234801561001057600080fd5b50600436106100365760003560e01c8063ef5fb05b1461003b578063f15da72914610059575b600080fd5b610043610089565b60405161005091906101b2565b60405180910390f35b610073600480360381019061006e9190610138565b6100c6565b60405161008091906101b2565b60405180910390f35b60606040518060400160405280600b81526020017f48656c6c6f20576f726c64000000000000000000000000000000000000000000815250905090565b6060819050919050565b60006100e36100de846101f9565b6101d4565b9050828152602081018484840111156100fb57600080fd5b610106848285610246565b509392505050565b600082601f83011261011f57600080fd5b813561012f8482602086016100d0565b91505092915050565b60006020828403121561014a57600080fd5b600082013567ffffffffffffffff81111561016457600080fd5b6101708482850161010e565b91505092915050565b60006101848261022a565b61018e8185610235565b935061019e818560208601610255565b6101a7816102e8565b840191505092915050565b600060208201905081810360008301526101cc8184610179565b905092915050565b60006101de6101ef565b90506101ea8282610288565b919050565b6000604051905090565b600067ffffffffffffffff821115610214576102136102b9565b5b61021d826102e8565b9050602081019050919050565b600081519050919050565b600082825260208201905092915050565b82818337600083830152505050565b60005b83811015610273578082015181840152602081019050610258565b83811115610282576000848401525b50505050565b610291826102e8565b810181811067ffffffffffffffff821117156102b0576102af6102b9565b5b80604052505050565b7f4e487b7100000000000000000000000000000000000000000000000000000000600052604160045260246000fd5b6000601f19601f830116905091905056fea264697066735822122092b759c9773ce42d6e14dfaecd9ef7ceea018d4ee898c99a249b192194d198dc64736f6c63430008040033",
  "immutableReferences": {},
  "source": "// SPDX-License-Identifier: MIT\npragma solidity >=0.4.22 <0.9.0; //solc\n\ncontract HelloWorld {\n    function sayHello() public returns (string memory) {\n        return (\"Hello World\");\n    }\n    function echo(string memory name)public view returns (string memory) {\n    return name;\n    }\n}\n\n",
  "sourcePath": "/home/user//smart contract/contracts/HelloWorld.sol",
  "compiler": {
    "name": "solc",
    "version": "0.8.4+commit.c7e474f2.Emscripten.clang"
  },
  "schemaVersion": "3.4.10",
  "updatedAt": "2022-10-19T12:18:08.195Z",
  "networkType": "ethereum",
  "devdoc": {
    "kind": "dev",
    "methods": {},
    "version": 1
  },
  "userdoc": {
    "kind": "user",
    "methods": {},
    "version": 1
  }
}