{
  "contractName": "SimpleToken",
  "abi": [
    {
      "inputs": [],
      "stateMutability": "nonpayable",
      "type": "constructor"
    },
    {
      "inputs": [
        {
          "internalType": "address",
          "name": "_to",
          "type": "address"
        },
        {
          "internalType": "uint256",
          "name": "_amount",
          "type": "uint256"
        }
      ],
      "name": "transfer",
      "outputs": [],
      "stateMutability": "nonpayable",
      "type": "function"
    },
    {
      "inputs": [
        {
          "internalType": "address",
          "name": "_owner",
          "type": "address"
        }
      ],
      "name": "balanceOf",
      "outputs": [
        {
          "internalType": "uint256",
          "name": "",
          "type": "uint256"
        }
      ],
      "stateMutability": "view",
      "type": "function",
      "constant": true
    }
  ],
  "bytecode": "0x608060405261271060005534801561001657600080fd5b50600054600160003373ffffffffffffffffffffffffffffffffffffffff1673ffffffffffffffffffffffffffffffffffffffff168152602001908152602001600020819055506103dd8061006c6000396000f3fe608060405234801561001057600080fd5b50600436106100365760003560e01c806370a082311461003b578063a9059cbb1461006b575b600080fd5b610055600480360381019061005091906101f5565b610087565b6040516100629190610269565b60405180910390f35b6100856004803603810190610080919061021e565b6100d0565b005b6000600160008373ffffffffffffffffffffffffffffffffffffffff1673ffffffffffffffffffffffffffffffffffffffff168152602001908152602001600020549050919050565b80600160003373ffffffffffffffffffffffffffffffffffffffff1673ffffffffffffffffffffffffffffffffffffffff168152602001908152602001600020541161011b57600080fd5b80600160003373ffffffffffffffffffffffffffffffffffffffff1673ffffffffffffffffffffffffffffffffffffffff168152602001908152602001600020600082825461016a91906102da565b9250508190555080600160008473ffffffffffffffffffffffffffffffffffffffff1673ffffffffffffffffffffffffffffffffffffffff16815260200190815260200160002060008282546101c09190610284565b925050819055505050565b6000813590506101da81610379565b92915050565b6000813590506101ef81610390565b92915050565b60006020828403121561020757600080fd5b6000610215848285016101cb565b91505092915050565b6000806040838503121561023157600080fd5b600061023f858286016101cb565b9250506020610250858286016101e0565b9150509250929050565b61026381610340565b82525050565b600060208201905061027e600083018461025a565b92915050565b600061028f82610340565b915061029a83610340565b9250827fffffffffffffffffffffffffffffffffffffffffffffffffffffffffffffffff038211156102cf576102ce61034a565b5b828201905092915050565b60006102e582610340565b91506102f083610340565b9250828210156103035761030261034a565b5b828203905092915050565b600061031982610320565b9050919050565b600073ffffffffffffffffffffffffffffffffffffffff82169050919050565b6000819050919050565b7f4e487b7100000000000000000000000000000000000000000000000000000000600052601160045260246000fd5b6103828161030e565b811461038d57600080fd5b50565b61039981610340565b81146103a457600080fd5b5056fea2646970667358221220b247fbf0d1ac88e0b08a79695e30bbbccbc1ceccce3952be157c2e400b04397664736f6c63430008040033",
  "immutableReferences": {},
  "source": "// SPDX-License-Identifier: MIT\npragma solidity >=0.4.22 <0.9.0; //solc\n\ncontract SimpleToken {\n  uint INITIAL_SUPPLY = 10000;\n  mapping(address => uint) balances;\n\n  constructor() {\n    balances[msg.sender] = INITIAL_SUPPLY;\n  }\n\n  // transfer token for a specified address\n  function transfer(address _to, uint _amount) public {\n    require(balances[msg.sender] > _amount);\n    balances[msg.sender] -= _amount;\n    balances[_to] += _amount;\n  }\n\n  // Gets the balance of the specified address\n  function balanceOf(address _owner) public view returns (uint) {\n    return balances[_owner];\n  }\n}\n\n",
  "sourcePath": "/home/user//smart contract/contracts/SimpleToken.sol",
  "compiler": {
    "name": "solc",
    "version": "0.8.4+commit.c7e474f2.Emscripten.clang"
  },
  "schemaVersion": "3.4.10",
  "updatedAt": "2022-10-19T12:18:09.944Z",
  "networkType": "ethereum",
  "devdoc": {
    "kind": "dev",
    "methods": {},
    "version": 1
  },
  "userdoc": {
    "kind": "user",
    "methods": {},
    "version": 1
  }
}